:020000040800F2
:10000000B0050020E1020008C9230008C52300084C
:10001000C7230008A7050008032D00080000000002
:100020000000000000000000000000000D26000895
:100030003106000800000000CB2300080F2600084E
:10004000FB020008FB020008FB020008FB0200089C
:10005000FB020008FB020008FB020008FB0200088C
:10006000FB020008FB020008FB020008FB0200087C
:10007000FB020008FB020008FB020008FB0200086C
:10008000FB020008FB020008FB020008FB0200085C
:10009000FB020008FB020008FB020008FB0200084C
:1000A000FB020008FB020008FB020008FB0200083C
:1000B000FB020008FB020008FB020008FB0200082C
:1000C000FB020008FB020008FB020008FB0200081C
:1000D000FB020008FB020008FB020008FB0200080C
:1000E00033060008FB02000800000000FB020008C5
:1000F000FB020008FB020008FB020008FB020008EC
:10010000FB020008FB020008FB020008FB020008DB
:10011000FB020008FB020008FB020008FB020008CB
:10012000FB020008FB020008FB020008FB020008BB
:10013000FB020008FB020008FB020008FB020008AB
:1001400000000000000000000000000000000000AF
:10015000FB020008FB020008FB020008FB0200088B
:10016000FB020008FB020008FB020008FB0200087B
:10017000FB020008FB020008FB0200080000000070
:10018000FB020008FB020008FB020008FB0200085B
:10019000FB020008FB020008FB020008FB0200084B
:1001A000FB020008FB020008FB0200080000000040
:1001B000FB020008FB020008FB020008FB0200082B
:1001C000FB020008FB020008000000000000000025
:1001D0000000000000000000FB020008000000001A
:1001E000000000000000000000000000000000000F
:1001F0000000000000000000FB020008FB020008F5
:10020000FB020008FB02000800000000FB020008DF
:10021000FB020008FB020008FB020008FB020008CA
:10022000FB02000800000000FB02000800000000C4
:10023000FB020008FB02000800000000FB020008AF
:10024000FB020008FB020008FB020008FB0200089A
:10025000FB020008FB020008FB020008FB0200088A
:10026000FB020008FB020008FB020008FB0200087A
:10027000FB020008FB020008FB020008000000006F
:10028000FB020008FB020008FB020008FB0200085A
:1002900000000000FB020008FB0200080000000054
:1002A00000000000FB020008FB020008FB0200083F
:1002B000FB020008FB020008FB020008FB0200082A
:1002C000FB020008FB020008FB020008DFF80CD06C
:1002D00000F07AF800480047452D0008B0050020DE
:1002E0000648804706480047FEE7FEE7FEE7FEE7D0
:1002F000FEE7FEE7FEE7FEE7FEE7FEE7AD260008C5
:10030000CD0200082DE9F05F0546002092469B468D
:1003100088460646814640241BE02846414647461B
:10032000224600F041F853465A46C01A914110D374
:1003300011461846224600F028F82D1A67EB0108EE
:100340004F4622460120002100F01FF817EB00095C
:100350004E41201EA4F10104DFDC484631462A4606
:100360004346BDE8F09FD2B201E000F8012B491EE0
:10037000FBD270470022F6E710B513460A46044642
:100380001946FFF7F0FF204610BD202A04DB203A73
:1003900000FA02F1002070479140C2F1200320FAD8
:1003A00003F3194390407047202A04DB203A21FAD6
:1003B00002F00021704721FA02F3D040C2F120027E
:1003C0009140084319467047064C074D06E0E06827
:1003D00040F0010394E8070098471034AC42F6D38C
:1003E000FFF778FF882E0008A82E0008F0B51A49FC
:1003F000040087B04FF0000505D0012C0BD0022C73
:1004000001D0AD1E24E0086840F0020008600868D2
:1004100000F0020006E0086840F01000086008687C
:1004200000F010000D4E059001210D4F0022032316
:1004300036F814008DE80F0057F82400694600F0E4
:10044000E9F936F81410002257F8240000F0F8FA01
:1004500007B02846F0BD0000E0440258582E0008BE
:100460008C00002010B54FF0000428B1012803D003
:10047000022801D0A41E08E00549064A31F81010F0
:1004800052F82000002200F0DBFA204610BD0000E8
:10049000582E00088C00002010B54FF0000428B141
:1004A000012803D0022801D0A41E08E00549064A0D
:1004B00031F8101052F82000012200F0C1FA204655
:1004C00010BD0000582E00088C00002010B54FF021
:1004D000000428B1012803D0022801D0A41E07E09F
:1004E0000449054A31F8101052F8200000F0A0FA33
:1004F000204610BD582E00088C00002070470000D8
:1005000030B50446224887B0026842F00402026017
:100510000068204A00F004000590022032F81430F0
:100520001D4A02900093039052F8240051B34FF4F7
:1005300088110191694600F06DF916491648091DA8
:100540000C3000EBC40051F82410054600F08CF884
:1005500011480021001D50F82420284600F08AF898
:100560000D4800220B4D0830AD1C50F8241035F911
:10057000140000F023FB35F9140000F012FB07B063
:10058000002030BD00210191694600F043F9F6E7F3
:10059000E0440258502E000878000020002010B5DA
:1005A000FFF7ACFF10BDFEE71F4B0020F0B5196848
:1005B000890311D4BFF34F8FBFF36F8F1B490860BE
:1005C000BFF34F8FBFF36F8F196841F4003119608B
:1005D000BFF34F8FBFF36F8F1968C90323D412493C
:1005E00070310860BFF34F8F081F43F6FF74006837
:1005F0000E4D1035C0F34E31C0F3C90204EA411666
:10060000104600BF46EA80772F60401EFAD2491E8E
:10061000F4D2BFF34F8F186840F480301860BFF3F6
:100620004F8FBFF36F8FF0BD14ED00E050EF00E08F
:1006300070474FF4005000F0E1B80220FFF72CFFA4
:10064000FEE7000070B5044600F000FA0546601CA5
:1006500002D004480078044400F0F8F9401BA0429E
:10066000FAD370BD9800002010B1016000207047DF
:100670000120704703004FF0000000D009B10120B5
:1006800070475A60704700002DE9F04F4C4D002232
:100690004FF0010A4FF00F0B8BE000BF0AFA02F98E
:1006A00019EA01037DD022F0030606F1B046940753
:1006B000D6F808C4270FDFF80C810BFA07FE404577
:1006C0000EEA0C0402D14FF0000C39E0DFF8F8C05C
:1006D000604502D14FF0010C32E0DFF8F0C0604518
:1006E00002D14FF0020C2BE0DFF8E4C0604502D1EC
:1006F0004FF0030C24E0DFF8DCC0604502D14FF07E
:10070000040C1DE0DFF8D0C0604502D14FF0050CAD
:1007100016E0DFF8C8C0604502D14FF0060C0FE0CC
:10072000DFF8BCC0604502D14FF0070C08E0DFF8ED
:10073000B4C0604502D14FF0090C01E04FF00A0C43
:100740000CFA07FCA44513D12C689C432C606F68FD
:100750004FF0B0449F436F6067689F4367602768AE
:100760009F432760D6F8084424EA0E04C6F80844DC
:1007700006680323D7084FEA42084FEA427C03FA8F
:1007800008F34FEADC6C1E4306600BFA0CF400EB36
:1007900087073E6AA6433E62C4689C43C4604468BF
:1007A00000E005E024EA0904446084689C43846016
:1007B000521C31FA02F37FF471AFBDE8F08F0000F4
:1007C0008000005800000258000402580008025837
:1007D000000C025800100258001402580018025869
:1007E000001C025800240258B0F5005F02D10249F3
:1007F0000120086070470000000000204FF0B04169
:1008000010B5D1F88820024203D0C1F88800FFF764
:10081000EBFF10BD2DE9F84F03247A4D00234FF074
:1008200001094FF0B04B4FF00F0AE4E009FA03F66C
:10083000324078D00F7907F00307012F01D0022F43
:100840001AD187684FEA430ED1F80CC004FA0EF8AB
:1008500027EA08070CFA0EFC4CEA070CC0F808C09F
:10086000476891F804C0B743CCF3001C0CFA03FCB2
:100870004CEA070CC0F804C00E79F643B6070BD05B
:10088000C6684FEA43088F6804FA08FC26EA0C069B
:1008900007FA08F73743C7600E7906F00306022E01
:1008A00012D1DE080F694FEA437C00EB8606B6469C
:1008B000366A4FEADC6C0AFA0CF807FA0CF726EAFB
:1008C00008063743CEF820700F7906684FEA4308D0
:1008D00007F0030704FA08FC07FA08F726EA0C06F3
:1008E000374307604E6816F4403F1CD0464E3768C9
:1008F00047F00207376036689F0706F00206009649
:1009000023F0030606F1B046B6463F0FD6F808645A
:10091000DFF8F8800AFA07FC404526EA0C0603D106
:100920004FF0000C3AE065E0DFF8E4C0604502D12A
:100930004FF0010C32E0DFF8DCC0604502D14FF02F
:10094000020C2BE0DFF8D0C0604502D14FF0030C61
:1009500024E0DFF8C8C0604502D14FF0040C1DE070
:10096000DFF8BCC0604502D14FF0050C16E0DFF89F
:10097000B4C0604502D14FF0060C0FE0DFF8A8C00C
:10098000604502D14FF0070C08E0DFF8A0C06045D9
:1009900002D14FF0090C01E04FF00A0C0CFA07FCF1
:1009A0004CEA060CCEF808C44F68DBF80060FF0282
:1009B00026EA020600D516435F46CBF80060D1F860
:1009C00004C0DBF804605FEA8C2C26EA020600D53E
:1009D00016437E606E684F6826EA0206BF0300D5A4
:1009E00016436E602E684F6826EA0206FF0300D5A4
:1009F00016432E605B1C0A6832FA03F67FF416AFCA
:100A0000BDE8F88F80000058F444025800000258F6
:100A10000004025800080258000C02580010025846
:100A20000014025800180258001C025800240258F2
:100A3000426921EA02030A4043EA024181617047A8
:100A40000AB1816170470904FBE700000148806832
:100A50007047000098000020024881680278114425
:100A60008160704798000020032010B500F0C6F8A0
:100A700000F0FEFF0F4A104914681368C4F3032204
:100A800003F00F038A5CC95C02F01F0201F01F0132
:100A9000D0400A4A20FA01F11160094908600F208C
:100AA00000F010F808B1012010BD00F079F8002026
:100AB00010BD000018440258762E0008A80000203F
:100AC000A400002070B50D4D04462878A0B14FF465
:100AD0007A71B1FBF0F00A490968B1FBF0F001F05E
:100AE000CCFA48B9102C07D200222146501E00F043
:100AF00065F800206C6070BD012070BD980000207A
:100B0000A4000020F0B5154C4378211D0A1D236078
:100B10000378F3B143680B60057BC67A817A437B27
:100B20002D07847B45EA0665C77B90F809C0067AE5
:100B300090F800E045EAC14040EA834040EA444082
:100B400040EA074040EA0C2040EA460040EA0E0036
:100B500001E0002008601060F0BD000098ED00E0AA
:100B6000BFF35F8F044800210368034A23F48033F6
:100B7000036070321160704724ED00E0074A40F0D6
:100B80000100064970321060086840F48030086047
:100B9000BFF34F8FBFF36F8F7047000024ED00E06D
:100BA0007047002809DB410900F01F02890001207D
:100BB00001F1E0219040C1F8000170470E4BF0B404
:100BC0001B680D46C3F30223C3F10706042E00D9A8
:100BD0000426191D072901D2002300E0DB1E012491
:100BE00004FA06F19C40491E2940641E99401440B5
:100BF0002143F0BC02F086B80CED00E0064900F09D
:100C0000070210B54FF6FF040868044B204040EA85
:100C100002201843086010BD0CED00E00000FA054A
:100C2000134970B50A68D243520705D5096801F027
:100C30000701814213D118E00A6822F0070202433B
:100C40000A60FFF703FF0A4D4FF47A760446083D29
:100C500007E000BFFFF7FAFE001BB04201D90120F8
:100C600070BD2868C0438004F4D4002070BD00002B
:100C70000C48025810B500F0B5FE05490968054A50
:100C8000C1F30211515C01F01F01C84010BD00000A
:100C900020440258762E0008494930B5484C0B1DB7
:100CA0000A68143409681D68246802F00303C5F358
:100CB0000012C1F30531C4F3CC04002914FB02F285
:100CC00000EE102AF8EE400A75D03F4A9FED3D1A1B
:100CD000B7EE000A6BB1DFED3D1A012B01D0022BFC
:100CE00064D002EE101A1168F8EE422A81EEA22AB0
:100CF00021E0334C283C23689B0612D5344B2468F2
:100D000001EE901A1168C4F3C104F8EE612AE340C1
:100D100001EE903AC1F30801F8EE611A81EEA22AC1
:100D20000BE001EE901ADFED2B2A00BFF8EE611AFE
:100D3000116882EEA12AC1F3080101EE901A116830
:100D4000F8EE611A40EE811A71EE800A62EE200A16
:100D5000C1F3462101EE101AB8EE411A31EE001A25
:100D6000C0EE811ABCEEE11A80ED001A1168C1F3E1
:100D7000064101EE101AB8EE411A31EE001AC0EE2B
:100D8000811ABCEEE11A80ED011A1168C1F3066107
:100D900001EE101AB8EE411A31EE000A80EE801A08
:100DA000BCEEC10A80ED020A30BD04E001EE901AEB
:100DB000DFED092ABAE70021016041608160F3E7B5
:100DC0002844025800000039384402580024744A6C
:100DD0000090D0030024744C0024F44A494930B5F3
:100DE000484C0B1D0A681C3409681D68246802F011
:100DF0000303C5F30022C1F30551C4F3CC04002959
:100E000014FB02F200EE102AF8EE400A75D03F4AB9
:100E10009FED3D1AB7EE000A6BB1DFED3D1A012BD5
:100E200001D0022B64D002EE101A1168F8EE422AAB
:100E300081EEA22A21E0334C283C23689B0612D580
:100E4000344B246801EE901A1168C4F3C104F8EE23
:100E5000612AE34001EE903AC1F30801F8EE611A0D
:100E600081EEA22A0BE001EE901ADFED2B2A00BFE3
:100E7000F8EE611A116882EEA12AC1F3080101EEB1
:100E8000901A1168F8EE611A40EE811A71EE800A2C
:100E900062EE200AC1F3462101EE101AB8EE411AA3
:100EA00031EE001AC0EE811ABCEEE11A80ED001A94
:100EB0001168C1F3064101EE101AB8EE411A31EE85
:100EC000001AC0EE811ABCEEE11A80ED011A116819
:100ED000C1F3066101EE101AB8EE411A31EE000AB4
:100EE00080EE801ABCEEC10A80ED020A30BD04E03B
:100EF00001EE901ADFED092ABAE700210160416096
:100F00008160F3E728440258000000394044025849
:100F10000024744A0090D0030024744C0024F44A46
:100F20002DE9FC5F0446FC4F50F8241B0025DFF838
:100F3000ECA32E46009008011DD5206E50B1B0F5EF
:100F4000801F0CD0B0F5001F0ED0B0F5401F1DD093
:100F500001250FE0386840F40030386016E00221C7
:100F6000201D01F033FA03E00098022101F0BEFADF
:100F700005000BD02E462088C00523D5606D0528BE
:100F80001ED2DFE800F00C11161B1B00226EDAF8EF
:100F9000001021F440111143CAF80010EBE7386843
:100FA00040F40030386009E00021201D01F00EFA05
:100FB00003E00098002101F099FA0546BDB100E078
:100FC00001252E462088DFF85483400508F10808E3
:100FD0002FD5D4F8A000B0F5C00F28D010DCB8B1E0
:100FE000B0F5001F19D0B0F5800F0FD11AE0626D77
:100FF000DAF8001021F007011143CAF80010E1E708
:10100000B0F5000F13D0B0F5200F10D001250FE080
:10101000386840F40030386009E00021201D01F0FC
:10102000D5F903E00098002101F060FA05468DB182
:101030002E462088000530D5D4F8A400B0F1407FBA
:1010400029D011DCC0B1B0F1807F1AD0B0F1007F9F
:1010500010D11BE0D4F8A020D8F8001021F46001D2
:101060001143C8F80010E4E7B0F1806F13D0B0F17D
:10107000A06F10D001250FE0386840F400303860D0
:1010800009E00021201D01F0A1F903E000980021F2
:1010900001F02CFA05468DB12E462068DFF87CB2AF
:1010A0008001ABF1040B1FD5A06CD8B110280FD074
:1010B000202812D0302815D0012514E0D4F8A4201F
:1010C000D8F8001021F0E0611143C8F80010E4E7FF
:1010D000386840F40030386004E00221201D01F03F
:1010E00075F905466DB12E462088C0042BD5A06D3C
:1010F000B0F5005F20D00DDCA0B1B0F5805F0FD15E
:1011000015E0A26CDBF8001021F030011143CBF8A0
:101110000010E9E7B0F5405F13D0B0F5804F10D074
:1011200001250FE0386840F40030386009E0002104
:10113000201D01F04BF903E00098002101F0D6F9E1
:10114000054685B12E462088800429D5E06DB0F58E
:10115000403F23D010DC08B3B0F5803F14D0B0F589
:10116000003F0FD115E0A26DDAF8001021F4E04144
:101170001143CAF80010E6E7B0F5802F0ED0B0F5A5
:10118000A02F0BD001250AE00121201D01F01EF93E
:1011900003E00098012101F0A9F905468DB12E4622
:1011A000208840042AD5D4F8A800B0F1405F23D0AD
:1011B00010DC08B3B0F1805F14D0B0F1005F0FD144
:1011C00015E0E26DDAF8001021F4E0211143CAF8CD
:1011D0000010E5E7B0F1804F0ED0B0F1A04F0BD07A
:1011E00001250AE00121201D01F0F0F803E000983C
:1011F000012101F07BF905466DB12E4620880004DF
:101200001FD5A06ED8B1B0F1805F0ED0B0F1005FF5
:1012100010D0012514E0D4F8A820D8F8001021F04F
:10122000E0411143C8F80010E8E7386840F40030A6
:10123000386004E00121201D01F0C8F805466DB1B9
:101240002E462068C0011ED5606CD0B101280ED09A
:10125000022811D0032814D0012513E0A26EDAF879
:10126000001021F040511143CAF80010E9E7386836
:1012700040F40030386004E00221201D01F0A6F89F
:10128000054665B12E462068400257D524480168BE
:1012900041F480710160FFF7D9FB81460EE0626C7A
:1012A000DBF8001021F003011143CBF80010EAE74E
:1012B000FFF7CCFBA0EB090064283DD81848006874
:1012C000C005F5D575BBDFF85490B4F8AC1009F142
:1012D0002009D9F8000001F4407100F44070884200
:1012E00011D0D9F80010D9F8002021F4407142F44F
:1012F0008032C9F80020D9F8002022F48032C9F8E1
:101300000020C9F80010D4F8AC00B0F5807F28D1D7
:10131000FFF79CFB019020E02C44025850440258F7
:101320000048025809E000BFFFF790FB0199411AFD
:1013300041F28830814210D903252E462078DFF80B
:101340002494C0073DD0606F182838D026DC80B3C5
:10135000082829D0102825D12CE0D9F800008007D2
:10136000E2D5D4F8AC10C1F301200328FE480DD01B
:10137000016821F47C510160B4F8AC20D9F8001068
:10138000C2F30B021143C9F80010D7E7F74A03680C
:1013900002EA111223F47C511143ECE720280ED00D
:1013A00028280CD001250BE00121201D01F00EF8AA
:1013B00004E004E00098012101F098F805465DB1D1
:1013C0002E46207880071ED5206F062819D2DFE828
:1013D00000F0160C11161616626FD9F8001021F0E5
:1013E00038011143C9F80010EBE70121201D00F07E
:1013F000EDFF03E00098012101F078F8054675B192
:1014000000E001252E46207840071FD5D4F88C0037
:10141000062819D2DFE800F0160C11161616226FF6
:10142000D9F8001021F007011143C9F80010EAE7CC
:101430000121201D00F0CAFF03E00098012101F006
:1014400055F805469DB100E001252E46207880061E
:101450002BD5D4F88800B0F1405F24D011DC10B354
:10146000B0F1805F15D0B0F1005F10D116E0D4F874
:101470008C20D8F8001021F007011143C8F80010A3
:10148000E4E7B0F1804F0ED0B0F1A04F0BD00125B2
:101490000AE00021201D00F099FF03E000980221DE
:1014A00001F024F805468DB12E46207840062BD554
:1014B000D4F89400B0F5406F24D011DC10B3B0F52F
:1014C000806F15D0B0F5006F10D116E0D4F88820E9
:1014D000D9F8001021F0E0411143C9F80010E4E709
:1014E000B0F5805F0ED0B0F5A05F0BD001250AE00B
:1014F0000021201D00F06AFF03E00098022100F0A7
:10150000F5FF05468DB12E46207800062BD5D4F880
:101510009800B0F5C04F24D011DC10B3B0F5005FD7
:1015200015D0B0F5804F10D116E0D4F89420D8F83B
:10153000001021F4E0511143C8F80010E4E7B0F5C1
:10154000004F0ED0B0F5204F0BD001250AE000214E
:10155000201D00F03BFF03E00098022100F0C6FFD1
:10156000054645B12E46207800071CD5E06FB0F542
:10157000805F0AD00FE0D4F89820D8F8001021F44A
:1015800060411143C8F80010EDE70098022100F017
:10159000ADFF00B10126E26FD9F8001021F44051EF
:1015A0001143C9F800102078C00613D5D4F8900074
:1015B000B0F5807F05D10098022100F097FF00B1BF
:1015C0000126D4F89020D8F8001021F4407111437E
:1015D000C8F800102068000316D5D4F89C0038B174
:1015E000B0F5803F09D0B0F5003F0BD001250AE0EF
:1015F0000021201D00F0EAFE03E00098022100F027
:1016000075FF054685B12E462068400322D5D4F8E3
:101610008000B0F5801F11D0B0F5001F13D0B0F5D9
:10162000401F15D0012514E0D4F89C20D8F80010F4
:1016300021F440311143C8F80010E5E7386840F460
:101640000030386004E00098012100F04FFF0546AB
:1016500055B12E462068C0031CD5E06C70B1B0F5C2
:10166000803F10D0012514E0D4F88020D9F8001074
:1016700021F440111143C9F80010EBE7386840F439
:101680000030386004E00221201D00F09FFE054676
:10169000CDB12E462068800005D50098022100F0CB
:1016A00025FF00B10126206880031BD5A06FB8B1CB
:1016B000B0F5807F10D0B0F5007F11D0B0F5407F3D
:1016C0000ED001250DE0E26CDBF8001021F4803132
:1016D0001143CBF80010DDE7386840F40030386083
:1016E000F5B32E462068C00207D5E26EDAF8001086
:1016F00021F000411143CAF800102068800207D58C
:10170000626EDAF8001021F080711143CAF80010FF
:101710002068400009D51448016821F400410160A7
:101720000168D4F8B020114301602068002807DA6E
:10173000226DDBF8001021F040511143CBF800106E
:101740002068000208D5D4F88420D9F8001021F4CC
:1017500040011143C9F800109EB10120BDE8FC9F73
:1017600006E000005444025810440258CFFFFF0026
:10177000A26FD9F8001021F440711143C9F800108C
:10178000B0E70020EAE700002DE9F05F04000F4613
:101790007ED0DFF83882D8F8000000F00F00B842A1
:1017A0000CD2D8F8001021F00F013943C8F800100E
:1017B000D8F8000000F00F00B84269D12078844DBD
:1017C00040070AD52069296801F07001884204D9D0
:1017D000296821F070010143296020787C4E361D74
:1017E00000070AD56069316801F07001884204D9A8
:1017F000316821F07001014331602078C0060AD5BC
:10180000A069316801F4E061884204D9316821F4AB
:10181000E061014331602078DFF8B4B180060BF15C
:10182000080B0CD5E1695846DBF8002002F0700285
:10183000914204D9026822F070020A4302602078C3
:1018400080070AD5E068296801F00F01884204D9B1
:10185000296821F00F01014329602078C0073ED09C
:101860005B49A2682868183920F47060104328602A
:101870006068022818D0032819D00968012819D0F7
:10188000490700294ADADFF848A1AAF1080A00E06E
:1018900044E0DAF8002022F007020243CAF80020F0
:1018A000FFF7D4F8814612E009688903E9E709687F
:1018B0008901E6E7C905E4E7FFF7C8F8A0EB0901ED
:1018C00041F28830814202D90320BDE8F09F61686F
:1018D000DAF8000000F03800B0EBC10FECD120784E
:1018E00080070AD5E068296801F00F01884204D218
:1018F000296821F00F0101432960D8F80010404603
:1019000001F00F01B9420BD9016821F00F013943F1
:101910000160006800F00F00B84201D00120D4E758
:10192000207840070AD52069296801F070018842B3
:1019300004D2296821F07001014329602078000752
:101940000AD56069316801F07001884204D23168BB
:1019500021F07001014331602078C0060AD5A069EA
:10196000316801F4E061884204D2316821F4E06119
:1019700001433160207880060CD5E1695846DBF8D8
:10198000002002F07002914204D2026822F070023C
:101990000A43026000F06CF80E492A682B68C2F313
:1019A000032203F00F038A5CC95C02F01F0201F0FE
:1019B0001F01D040084A20FA01F111600749086070
:1019C00007480068BDE8F05FFFF77CB800200052D0
:1019D00018440258762E0008A8000020A400002019
:1019E0009C00002030B500F043F80B4A0B490C4B2B
:1019F00015681468C5F3032204F00F048A5C095DBE
:101A000002F01F0201F01F01D040064A20FA01F146
:101A100019601060084630BD18440258762E000840
:101A2000A8000020A400002000B5FFF7DBFF054957
:101A30000968054AC1F30211515C01F01F01C84059
:101A400000BD00001C440258762E000800B5FFF7C8
:101A5000C9FF05490968054AC1F30221515C01F03B
:101A60001F01C84000BD00001C440258762E00082B
:101A7000454970B545480968434B103B11F03802A1
:101A800008D00111082A03D0102A0BD0182A0BD035
:101A9000084670BD19688906FBD51968C1F3C101F4
:101AA000C84070BD3A4870BD3749374D18310C1DDC
:101AB00024350A68096826682D6802F0030406F0D8
:101AC0000102C1F30511C5F3CC0515FB02F200EECE
:101AD000102AB8EE400AE9B32F4ADFED2E0AB7EE1E
:101AE000001A6CB1DFED2D1A012C01D0022C43D06D
:101AF00002EE101A1068F8EE422A81EEA22A1EE0C9
:101B00001C68A40611D51B6801EE901A1168C3F376
:101B1000C103F8EE612AD84001EE900AC1F3080033
:101B2000F8EE611A81EEA22A0BE001EE901ADFEDC9
:101B30001C2A00BFF8EE611A106882EEA12AC0F3D9
:101B4000080001EE900AF8EE611A40EE201A31EE1C
:101B5000810A00E015E022EE000A1068C0F346207A
:101B6000401C00EE900AF8EE600A80EE201ABCEEEF
:101B7000C10A10EE100A70BD01EE901ADFED092ABD
:101B8000D8E7002070BD0000104402580090D00338
:101B900000127A0000000039304402580024744AD0
:101BA0000024744C0024F44A2DE9F04704007DD051
:101BB000FF4F2078FE4D1837DFF8F483103DC00743
:101BC00048D0D8F80000396800F03800102815D047
:101BD000182803D101F0030002280FD06068B0F587
:101BE000803F12D010B1B0F5A02F18D0286820F493
:101BF00080302860286820F4802009E0286880036D
:101C000028D560680028D2D024E0286840F48030CD
:101C10002860606888B1FEF719FF064609E0286869
:101C200040F480202860F0E7FEF710FF801B642856
:101C30007ED828688003F7D50CE0FEF707FF06463C
:101C400005E000BFFEF702FF801B6428F0D828687B
:101C50008003F7D42078800756D5D8F80000DFF845
:101C60005093396810F03800A9F10C090ED01828EB
:101C700001D188070AD0E068A8B3296821F01901CA
:101C800001432960FEF7E2FE064628E02868400787
:101C900002D5E06800288AD0E168286820F01900A1
:101CA00008432860FEF7D2FE064606E0D2E000BFF9
:101CB000FEF7CCFE801B0228BAD828684007F7D56B
:101CC000217CD9F8002022F0FE4242EA0161C9F8E5
:101CD000001019E0FEF7BAFE801B0228A8D8286879
:101CE0004007F7D5ECE7FFE7286820F001002860FF
:101CF000FEF7ACFE064604E0FEF7A8FE801B0228B5
:101D000096D828684007F7D42078C00646D5D8F87A
:101D10000000DFF89C92396800F03800A9F104094E
:101D2000082812D0182805D101F00300012800E08E
:101D3000CEE00AD0E0690028286820D040F080007A
:101D40002860FEF783FE064615E02868C00502D528
:101D5000E06980287ED194F82010D9F8002022F084
:101D60007C5242EA0161C9F8001017E0FEF76EFEEE
:101D7000801B0228A0D82868C005F7D5EBE720F023
:101D800080002860FEF762FE064604E0FEF75EFE75
:101D9000801B022890D82868C005F7D42078000757
:101DA00029D583486169643000298146016811D0D2
:101DB00041F001010160FEF749FE064605E000BF63
:101DC000FEF744FE801B022888D8D9F8000080075F
:101DD000F6D510E021F001010160FEF737FE06465E
:101DE00005E000BFFEF732FE801B022870D8D9F84C
:101DF00000008007F6D42078800623D5A06900284B
:101E0000286810D040F480502860FEF71FFE064678
:101E100005E000BFFEF71AFE801B022858D828688C
:101E20008004F7D50EE020F480502860FEF70EFE07
:101E3000064604E0FEF70AFE801B022848D8286800
:101E40008004F7D42078400751D5DFF86891D9F89D
:101E5000001000E00DE141F48071C9F80010FEF7B8
:101E6000F5FD064605E000BFFEF7F0FD801B642887
:101E70002ED8D9F80000C005F6D54D4EA0686036C2
:101E800001280AD008B1052813D0306820F00100DD
:101E90003060306820F0040002E0306840F001005B
:101EA0003060A06841F2883A98B1FEF7CFFD8146D4
:101EB0000AE0306840F004003060EEE7FEF7C6FD4F
:101EC000A0EB0901514503D830688007F6D50EE034
:101ED00072E0FEF7BBFD814606E000BFFEF7B6FDEF
:101EE000A0EB0901514567D830688007F6D4606AD5
:101EF000F0B34146DFF8B88008F120080968C1F363
:101F0000C201032977D00228286820F08070286059
:101F100003D0FEF79BFD044680E0FEF797FD0646E2
:101F200005E000BFFEF792FD801B022873D82868E9
:101F30008001F7D4E26A40F2F331386854F8283F60
:101F4000884340EA021018433860217B4FF4FE0CAE
:101F500022894FF0FE47268A4902207D521E761EB6
:101F6000A1F5007189B20CEA0646C2F3080200E04E
:101F700081E01143401E314307EA00620C481143DF
:101F80000B4A1C30C8F800102432016821F001010E
:101F9000016011684FF6F876236AB14341EAC30144
:101FA00011600168A26921F00C011143016004E095
:101FB00010440258004802582DE00168E26921F0FF
:101FC000020111430160016841F480310160016840
:101FD00041F400310160016841F480210160016831
:101FE00041F001010160286840F080702860FEF730
:101FF0002DFD044605E015E0FEF728FD001B022834
:1020000009D828688001F7D535E000BFFEF71EFD2E
:10201000001B022802D90320BDE8F0872868800150
:10202000F4D428E039680128D8F8000021D0A26A49
:1020300001F0030393421CD1E26AC1F305118A4205
:1020400017D1216BC0F30802491E8A4211D1616B7E
:10205000C0F34622491E91420BD1A16BC0F3064248
:10206000491E914205D1E16BC0F30660491E8142D1
:1020700001D00120D0E70020CEE7401EB0F1807FE4
:1020800010B501D3012010BD4FF0E02460610F2195
:10209000601700F037FE0020A0610721216110BD0C
:1020A00070B504001CD02420C4F8840000252068EA
:1020B000016821F001010160206805602068456029
:1020C00020688560204600F043F8C4F88C50C4F8BE
:1020D0008450C4F88850E566002084F8805070BDB4
:1020E000012070BD10B5040003D0D4F8840010B1F5
:1020F00007E0012010BD002084F88000204600F099
:1021000043F82420C4F884002068016821F001010C
:102110000160204600F0A2FB0128EBD0A06A10B1BC
:10212000204600F007FB2068416821F4904141609F
:102130002068816821F02A0181602068016841F0EF
:10214000010101602046BDE8104000F057BB0000CF
:102150000B4810B5016841F480210160016821F449
:1021600080210160074C4FF480712046FEF78CFA05
:102170002046BDE810404FF40071FEF785BA00001C
:1021800090440258000C02581D4830B5B3B00168A5
:1021900041F008010160016801F008013291016815
:1021A00041F0080101600068012400F0080032904D
:1021B000002000941D906846FEF7B2FE10480830DB
:1021C000016841F4802101600068072500F4802047
:1021D00032900220C101CDE92D1031952DA9CDE914
:1021E0002F40084C2046FEF715FB4FF40070319548
:1021F0002DA92D902046FEF70DFB33B030BD000019
:10220000E0440258000C02582DE9F84F0446D0F87B
:1022100088009A4616460D46202872D10DB306B3A3
:1022200094F8800001286CD0012284F880202221BB
:102230004FF00008C4F88C80C4F88810C4F86C8093
:102240002034FEF703FC814654F8180CA6874FF49F
:102250008053E687FF21203C984208D122691AB1B9
:102260001EE00120BDE8F88F40F2FF1118E04FF0AA
:102270007F0298B1B0F1805F15D0A4F8608000BFF4
:10228000B4F86070984201D1206998B12E460025BB
:10229000404607F0FF0884F8800024E0266936B93C
:1022A000A4F86010ECE7216909B13F21F8E7A4F830
:1022B0006020E5E70026EBE700224B462021204680
:1022C000CDF800A000F0B8FC08B10320CAE72068F0
:1022D000406A8EB100EA080006F8010BB4F85E000F
:1022E000401EA4F85E00B4F85E000028E4D120206F
:1022F000C4F888000020B5E7384025F8020BEDE768
:10230000FFE70220AEE72DE9F8430446D0F8840049
:102310001F4616460D46202852D1DDB1D6B194F89D
:10232000800001284CD0012084F8800021224FF049
:102330000008C4F88C80C4F884201834FEF786FBAB
:10234000814654F8100CA687E687183CB0F5805FEC
:1023500003D004E00120BDE8F883206920B12E46B7
:10236000002584F8808010E00026FAE780212046CE
:1023700000F062FCB8B9C6B116F8010B216888629A
:10238000B4F85600401EA4F85600B4F856004B4668
:102390004FF0000200970028E8D14FF0400120469E
:1023A00000F04AFC38B10320D5E735F8020B21686C
:1023B000C0F30800E3E72020C4F884000020CAE747
:1023C0000220C8E7FEE7FEE7704770472DE9F047B7
:1023D000454D044689464FF0000A2868C0438007EF
:1023E0000AD0414E283E306820F080603060FEF711
:1023F0002DFB0746B04608E00120BDE8F08700BF8E
:10240000FEF724FBC01B022867D8D8F800000001A3
:10241000F6D4206829684FF4FE0721F47C313E028F
:1024200041EA00302860207AA389B4F804C0400251
:102430002D4D2D495B1E227CACF1010C1035091D80
:10244000A0F5007080B2521ECCF3080C07EA0343DB
:1024500040EA0C00184306EA02621043286008684C
:10246000626920F0C000104308600A68A06922F089
:10247000200202430A60281D0A6822F010020A6046
:1024800002684FF6F873E4699A4342EAC4020260B4
:102490000868B9F1000F40F010020A6011D0086816
:1024A000B9F1010F11D040F400100860D8F8000015
:1024B000444640F08060C8F80000FEF7C7FA0546C1
:1024C0000DE0086840F40020EFE740F48010ECE7EE
:1024D000FEF7BCFA401B022801D903208DE72068D3
:1024E0000001F5D5504688E7284402582DE9F04709
:1024F000454D044689464FF0000A2868C0438007CE
:102500000AD0414E283E306820F080503060FEF7FF
:102510009DFA0746B04608E00120BDE8F08700BFFD
:10252000FEF794FAC01B022867D8D8F80000800094
:10253000F6D4208829684FF4FE0721F07C713E0212
:1025400041EA00502860207AA389B4F804C0400210
:102550002D4D2D495B1E227CACF1010C1835091D57
:10256000A0F5007080B2521ECCF3080C07EA0343BA
:1025700040EA0C00184306EA02621043286008682B
:10258000626920F44060104308600A68A06922F480
:10259000007202430A60281D0A6822F480720A60F1
:1025A00002684FF6F873E4699A4342EAC402026093
:1025B0000868B9F1000F40F480720A6011D0086811
:1025C000B9F1010F11D040F080700860D8F8000018
:1025D000444640F08050C8F80000FEF737FA054640
:1025E0000DE0086840F48000EFE740F40000ECE7FD
:1025F000FEF72CFA401B022801D903208DE7206842
:102600008000F5D5504688E7284402587047FEF709
:1026100023BA000030B59DB0202113A8FDF7AAFE13
:102620004C216846FDF7A6FE0220FEF7F9FA1E4887
:10263000016821F4404101600168002401F4404137
:102640001B9101688904FCD54FF4A0230794042052
:1026500003940122129402210991CDE90023CDE9CE
:102660000A10CDE91004CDE90E014FF482736846DB
:10267000CDE90C32FFF798FA00B1FEE740201A903E
:1026800008230501CDE9163013ABCDE918053F212C
:10269000032283E8160013A81146FFF775F80028F7
:1026A00000D0FEE71DB030BD184802581D4AF0B5F5
:1026B0001D49146800201C4B44F47004146010334E
:1026C0000A681A4C42F001020A6018600D68164A46
:1026D00025400D601832131D1C1D134D1060283548
:1026E00018602A1D2060131D1C1D2860251D106008
:1026F0002A1D1860131D20601C1D286010601860C2
:1027000020600A6843F2D204094D074B22F480226C
:10271000044F60330A606E03803F18602C603E6097
:10272000F0BD000088ED00E0004402587FEDF6EABD
:102730000040005290F82810C90706D00168C36A0B
:102740004A6822F400321A434A6090F82810890738
:1027500006D50168036B4A6822F480321A434A6046
:1027600090F82810490706D50168436B4A6822F49F
:1027700080221A434A6090F82810090706D501689C
:10278000836B4A6822F400421A434A6090F828108A
:10279000C90606D50168C36B8A6822F480521A43C1
:1027A0008A6090F82810890606D50168036C8A684B
:1027B00022F400521A438A6090F82810490611D575
:1027C0000168436C4A6822F480121A434A60416CE3
:1027D000B1F5801F06D10168836C4A6822F4C002FB
:1027E0001A434A6090F82810090606D50168C26CA1
:1027F000486820F40020104348607047F8B5002670
:102800000446C0F88C60FEF721F9054620686FF099
:102810007E470068000708D500222B464FF40011C0
:102820002046009700F008FA60B920680068400769
:102830000AD500222B464FF480012046009700F075
:10284000FBF908B10320F8BD2020C4F88400C4F8C7
:102850008800E666002084F88060F8BD2DE9F0432A
:1028600004468068E24E87B0E24B2168D4E9042731
:10287000D4F81CC010430A68002547EA0C07384307
:10288000324002430A602068E268416821F4405106
:10289000114341602268A1699A4201D0206A014334
:1028A0009668DFF854C3D54FD54806EA0C060E43A8
:1028B00096602168666ACA6A22F00F023243CA62D1
:1028C0002268BA420ED1006800F0380018286FD094
:1028D0007ADCB8B308286CD010286BD18BE028289C
:1028E00068D18EE0C7498A4209D1006800F007002C
:1028F00006285FD2DFE800F0507D7F818385C249E2
:102900008A4209D1006800F0070006287BD2DFE880
:1029100000F0437072747678BC498A4209D100682D
:1029200000F0070006286ED2DFE800F03663656726
:10293000696BB7498A420BD1006800F0070006288E
:1029400061D200E043E0DFE800F0275456585A5CBB
:10295000B0498A4206D1006800F0380018284CD0EF
:10296000B7DD31E0AC498A4209D1006800F00700C8
:10297000062848D2DFE800F0103D3F414345A74913
:102980008A420BD1006800F0070006283BD2DFE83E
:1029900000F0033032343638002035E0A0498A4256
:1029A00009D1006800F03800182826D091DD0BE02E
:1029B00023E01EE027E09B498A420AD1006800F02C
:1029C0003800182819D084DD202888D11CE0012087
:1029D0001AE09A4217D18A48001D006800F00700EB
:1029E000062810D2DFE800F0030507090B0D0220CE
:1029F0000AE0042008E0082006E0102004E020207F
:102A000002E0402000E080208749DFF820829A42DF
:102A1000874A4FF400434FEA21174FF000064ED18A
:102A200010281AD006DC022809D004280BD0082868
:102A30007ED10DE020283ED0402879D13DE0FEF740
:102A400019F9014610E06846FEF726F901990BE0F6
:102A500003A8FEF7C3F9049906E01068800605D5BF
:102A60001068C0F3C100C140002970D0606A676877
:102A700038F8102007EB4703B1FBF2F0834257D838
:102A8000B0EB073F54D8002308461946FDF73AFC3F
:102A900002467808130E120243EA012110183A4642
:102AA00071410023FDF72EFC624AA0F5407191426E
:102AB0003ED821688FE03946D8E71946D6E7D4F8E2
:102AC0001CC04FF6EF799C4546D1082819D005DC8B
:102AD00058B101280CD0042875D10DE0102815D06C
:102AE000202835D040286ED134E0FEF79DFF01E06C
:102AF000FEF7ACFF014610E06846FEF7CDF80199FD
:102B00000BE003A8FEF76AF9049906E01068800656
:102B100004D51068C0F3C100C140C1B1636A6068E8
:102B200038F81330B1FBF3F1490001EB500100E03C
:102B300049E0B1FBF0F0A0F11001494543D84FF650
:102B4000F0732168C0F342021840104343E043E0B1
:102B50003946E3E71946E1E7082819D005DC58B102
:102B600001280CD004282ED10DE0102815D02028E3
:102B70002BD0402827D12AE0FEF756FF01E0FEF7D0
:102B800065FF014610E06846FEF786F801990BE004
:102B900003A8FEF723F9049906E01068800604D51F
:102BA0001068C0F3C100C140B1B1636A606838F811
:102BB0001330B1FBF3F101EB5001B1FBF0F0A0F1E8
:102BC0001001494505D9012506E03946EDE71946CA
:102BD000EBE7216880B2C8600120A4F86A00A4F87D
:102BE000680028462667666707B0BDE8F0830000E6
:102BF000F369FFCF000C0058FFF4FF1100100140F3
:102C0000544402580044004000480040004C00403A
:102C1000005000400014014000780040007C00405B
:102C200000180140001C01400090D0035E2E0008F7
:102C300000440258FFFC0F002DE9F0479A46174662
:102C40000E460446089D4FF000094FF020084CE066
:102C5000681C4AD0FDF7FAFEA0EB0A00A8422AD869
:102C60004DB32068016849073FD5C069C0430005DE
:102C70003BD421684FF400600862216851E8000FDE
:102C800020F4D07041E80002002AF6D12068083014
:102C900050E8001F21F0010140E80012002AF5D1A0
:102CA000C4F8848084F88090C4F88880C4F88C804C
:102CB0000320BDE8F087206850E8001F21F4D071A0
:102CC00040E80012002AF6D12068083050E8001FC2
:102CD00021F0010140E80012002AF5D1C4F88480F7
:102CE00084F88090C4F88880E2E72068C06936EAFA
:102CF000000004D00020B842AAD00020D9E701206B
:102D0000F9E7FEE7090700284FEA116104DB00F14B
:102D1000E02080F80014704700F00F0000F1E02080
:102D200080F8141D704702E008C8121F08C1002A6D
:102D3000FAD170477047002001E001C1121F002A3C
:102D4000FBD170471FB5FDF70BFF00248DF80F4036
:102D500001208DF80E401F218DF808108DF80B40D2
:102D600087228DF800008DF80D008DF80A4001943F
:102D70008DF801408DF809208DF80C006846FDF7AC
:102D8000C1FE0420FDF7FAFEFDF70EFCFDF76CFE18
:102D9000FFF740FC0120FDF729FB0220FDF726FB91
:102DA00029484FF41652274B0C210360C0E9012437
:102DB000C4600461C0E90514C46144628462FFF721
:102DC0006FF988BB2048FFF78DF968BB012100200F
:102DD000FDF796FB1D4C04E0FDF778FB6420FDF742
:102DE00031FC206800284FF00100F5D0FDF73AFBD8
:102DF000164941F2883414486F22091D2346FFF713
:102E000082FA88B910496F220F4823469031FFF7A4
:102E1000FBF948B90D490C48091D90306E220B781A
:102E20000478A34202D042B1FDF707FC531E9AB2C8
:102E300000F1010001F10101F1D20120FDF72CFBAD
:102E4000FEE7000000480040AC0000200000002029
:102E5000002028000D003016010002000040010093
:102E600002000400060008000A000C001000200008
:102E70004000800000010000000001020304010284
:102E80000304060708090000A82E0008000000201F
:102E9000AC000000262D0008542F0008AC000020D4
:102EA00004050000362D000800000000202A2A2A10
:102EB0002A20554152545F54776F426F6172647398
:102EC0005F436F6D506F6C6C696E67202A2A2A2AE7
:102ED00020202A2A2A2A20554152545F54776F42D3
:102EE0006F617264735F436F6D506F6C6C696E6776
:102EF000202A2A2A2A20202A2A2A2A2055415254C6
:102F00005F54776F426F617264735F436F6D506F90
:102F10006C6C696E67202A2A2A2A2000004800402B
:102F2000000802589D0500080F0000000000000086
:102F3000000000000004025800100258000402586B
:102F40000100000010000000000000000090D0030D
:042F50000090D0031A
:04000005080002CD20
:00000001FF
